{
  "contractName": "Game",
  "abi": [
    {
      "inputs": [
        {
          "internalType": "address",
          "name": "_gameShareHolder",
          "type": "address"
        },
        {
          "internalType": "address",
          "name": "_tokenAddress",
          "type": "address"
        }
      ],
      "stateMutability": "nonpayable",
      "type": "constructor"
    },
    {
      "anonymous": false,
      "inputs": [
        {
          "indexed": false,
          "internalType": "uint256",
          "name": "from",
          "type": "uint256"
        },
        {
          "indexed": false,
          "internalType": "uint256",
          "name": "to",
          "type": "uint256"
        }
      ],
      "name": "GameShareChanged",
      "type": "event"
    },
    {
      "anonymous": false,
      "inputs": [
        {
          "indexed": false,
          "internalType": "address",
          "name": "from",
          "type": "address"
        },
        {
          "indexed": false,
          "internalType": "address",
          "name": "to",
          "type": "address"
        }
      ],
      "name": "GameShareHolderChanged",
      "type": "event"
    },
    {
      "anonymous": false,
      "inputs": [
        {
          "indexed": false,
          "internalType": "address",
          "name": "to",
          "type": "address"
        },
        {
          "indexed": false,
          "internalType": "uint256",
          "name": "share",
          "type": "uint256"
        }
      ],
      "name": "InvestorAdded",
      "type": "event"
    },
    {
      "anonymous": false,
      "inputs": [
        {
          "indexed": false,
          "internalType": "address",
          "name": "investor",
          "type": "address"
        }
      ],
      "name": "InvestorRemove",
      "type": "event"
    },
    {
      "anonymous": false,
      "inputs": [
        {
          "indexed": false,
          "internalType": "address",
          "name": "investor",
          "type": "address"
        },
        {
          "indexed": false,
          "internalType": "uint256",
          "name": "from",
          "type": "uint256"
        },
        {
          "indexed": false,
          "internalType": "uint256",
          "name": "to",
          "type": "uint256"
        }
      ],
      "name": "InvestorShareChange",
      "type": "event"
    },
    {
      "anonymous": false,
      "inputs": [
        {
          "indexed": false,
          "internalType": "uint256",
          "name": "from",
          "type": "uint256"
        },
        {
          "indexed": false,
          "internalType": "uint256",
          "name": "to",
          "type": "uint256"
        }
      ],
      "name": "InvestorsShareChanged",
      "type": "event"
    },
    {
      "anonymous": false,
      "inputs": [
        {
          "indexed": true,
          "internalType": "address",
          "name": "previousOwner",
          "type": "address"
        },
        {
          "indexed": true,
          "internalType": "address",
          "name": "newOwner",
          "type": "address"
        }
      ],
      "name": "OwnershipTransferred",
      "type": "event"
    },
    {
      "anonymous": false,
      "inputs": [
        {
          "indexed": false,
          "internalType": "address",
          "name": "to",
          "type": "address"
        },
        {
          "indexed": false,
          "internalType": "uint256",
          "name": "amount",
          "type": "uint256"
        }
      ],
      "name": "PaidToGame",
      "type": "event"
    },
    {
      "anonymous": false,
      "inputs": [
        {
          "indexed": false,
          "internalType": "address",
          "name": "to",
          "type": "address"
        },
        {
          "indexed": false,
          "internalType": "uint256",
          "name": "share",
          "type": "uint256"
        },
        {
          "indexed": false,
          "internalType": "uint256",
          "name": "amount",
          "type": "uint256"
        }
      ],
      "name": "PaidToInvestor",
      "type": "event"
    },
    {
      "inputs": [
        {
          "internalType": "address",
          "name": "account",
          "type": "address"
        },
        {
          "internalType": "uint256",
          "name": "share",
          "type": "uint256"
        }
      ],
      "name": "addInvestor",
      "outputs": [],
      "stateMutability": "nonpayable",
      "type": "function"
    },
    {
      "inputs": [],
      "name": "gameShare",
      "outputs": [
        {
          "internalType": "uint256",
          "name": "",
          "type": "uint256"
        }
      ],
      "stateMutability": "view",
      "type": "function",
      "constant": true
    },
    {
      "inputs": [],
      "name": "gameShareHolder",
      "outputs": [
        {
          "internalType": "address",
          "name": "",
          "type": "address"
        }
      ],
      "stateMutability": "view",
      "type": "function",
      "constant": true
    },
    {
      "inputs": [],
      "name": "getAllInvestors",
      "outputs": [
        {
          "internalType": "address[]",
          "name": "",
          "type": "address[]"
        },
        {
          "internalType": "uint256[]",
          "name": "",
          "type": "uint256[]"
        }
      ],
      "stateMutability": "view",
      "type": "function",
      "constant": true
    },
    {
      "inputs": [
        {
          "internalType": "uint256",
          "name": "",
          "type": "uint256"
        }
      ],
      "name": "investors",
      "outputs": [
        {
          "internalType": "address",
          "name": "account",
          "type": "address"
        },
        {
          "internalType": "uint256",
          "name": "percent",
          "type": "uint256"
        }
      ],
      "stateMutability": "view",
      "type": "function",
      "constant": true
    },
    {
      "inputs": [],
      "name": "investorsShare",
      "outputs": [
        {
          "internalType": "uint256",
          "name": "",
          "type": "uint256"
        }
      ],
      "stateMutability": "view",
      "type": "function",
      "constant": true
    },
    {
      "inputs": [],
      "name": "owner",
      "outputs": [
        {
          "internalType": "address",
          "name": "",
          "type": "address"
        }
      ],
      "stateMutability": "view",
      "type": "function",
      "constant": true
    },
    {
      "inputs": [
        {
          "internalType": "uint256",
          "name": "index",
          "type": "uint256"
        }
      ],
      "name": "removeInvestor",
      "outputs": [],
      "stateMutability": "nonpayable",
      "type": "function"
    },
    {
      "inputs": [],
      "name": "renounceOwnership",
      "outputs": [],
      "stateMutability": "nonpayable",
      "type": "function"
    },
    {
      "inputs": [],
      "name": "tokenAddress",
      "outputs": [
        {
          "internalType": "address",
          "name": "",
          "type": "address"
        }
      ],
      "stateMutability": "view",
      "type": "function",
      "constant": true
    },
    {
      "inputs": [
        {
          "internalType": "address",
          "name": "tokenAddress",
          "type": "address"
        },
        {
          "internalType": "uint256",
          "name": "amount",
          "type": "uint256"
        }
      ],
      "name": "transferAmount",
      "outputs": [],
      "stateMutability": "nonpayable",
      "type": "function"
    },
    {
      "inputs": [
        {
          "internalType": "address",
          "name": "newOwner",
          "type": "address"
        }
      ],
      "name": "transferOwnership",
      "outputs": [],
      "stateMutability": "nonpayable",
      "type": "function"
    },
    {
      "inputs": [],
      "name": "uniswapRouter",
      "outputs": [
        {
          "internalType": "contract IUniswapV2Router02",
          "name": "",
          "type": "address"
        }
      ],
      "stateMutability": "view",
      "type": "function",
      "constant": true
    },
    {
      "inputs": [
        {
          "internalType": "uint256",
          "name": "index",
          "type": "uint256"
        },
        {
          "internalType": "uint256",
          "name": "share",
          "type": "uint256"
        }
      ],
      "name": "updateShare",
      "outputs": [],
      "stateMutability": "nonpayable",
      "type": "function"
    },
    {
      "stateMutability": "payable",
      "type": "receive",
      "payable": true
    },
    {
      "inputs": [
        {
          "internalType": "uint256",
          "name": "tokenAmount",
          "type": "uint256"
        },
        {
          "internalType": "address",
          "name": "tokenAdd",
          "type": "address"
        },
        {
          "internalType": "uint256",
          "name": "ethAmount",
          "type": "uint256"
        }
      ],
      "name": "convertEthToToken",
      "outputs": [],
      "stateMutability": "nonpayable",
      "type": "function"
    },
    {
      "inputs": [
        {
          "internalType": "uint256",
          "name": "tokAmount",
          "type": "uint256"
        },
        {
          "internalType": "address",
          "name": "tokenAdd",
          "type": "address"
        }
      ],
      "name": "getEstimatedETHforToken",
      "outputs": [
        {
          "internalType": "uint256[]",
          "name": "",
          "type": "uint256[]"
        }
      ],
      "stateMutability": "view",
      "type": "function",
      "constant": true
    },
    {
      "inputs": [
        {
          "internalType": "uint256",
          "name": "numerator",
          "type": "uint256"
        },
        {
          "internalType": "uint256",
          "name": "denominator",
          "type": "uint256"
        },
        {
          "internalType": "uint256",
          "name": "precision",
          "type": "uint256"
        }
      ],
      "name": "percent1",
      "outputs": [
        {
          "internalType": "uint256",
          "name": "quotient",
          "type": "uint256"
        }
      ],
      "stateMutability": "pure",
      "type": "function",
      "constant": true
    },
    {
      "inputs": [
        {
          "internalType": "uint256",
          "name": "_share",
          "type": "uint256"
        }
      ],
      "name": "updateGameShare",
      "outputs": [],
      "stateMutability": "nonpayable",
      "type": "function"
    },
    {
      "inputs": [
        {
          "internalType": "address",
          "name": "_holder",
          "type": "address"
        }
      ],
      "name": "changeGameShareHolder",
      "outputs": [],
      "stateMutability": "nonpayable",
      "type": "function"
    },
    {
      "inputs": [],
      "name": "getGameShare",
      "outputs": [
        {
          "internalType": "uint256",
          "name": "",
          "type": "uint256"
        }
      ],
      "stateMutability": "view",
      "type": "function",
      "constant": true
    },
    {
      "inputs": [],
      "name": "getInvestorsShare",
      "outputs": [
        {
          "internalType": "uint256",
          "name": "",
          "type": "uint256"
        }
      ],
      "stateMutability": "view",
      "type": "function",
      "constant": true
    },
    {
      "inputs": [
        {
          "internalType": "address",
          "name": "account",
          "type": "address"
        },
        {
          "internalType": "uint256",
          "name": "share",
          "type": "uint256"
        }
      ],
      "name": "addNewInvestor",
      "outputs": [],
      "stateMutability": "nonpayable",
      "type": "function"
    },
    {
      "inputs": [],
      "name": "getInvestors",
      "outputs": [
        {
          "internalType": "address[]",
          "name": "",
          "type": "address[]"
        },
        {
          "internalType": "uint256[]",
          "name": "",
          "type": "uint256[]"
        }
      ],
      "stateMutability": "view",
      "type": "function",
      "constant": true
    },
    {
      "inputs": [
        {
          "internalType": "address",
          "name": "_tokenAddress",
          "type": "address"
        }
      ],
      "name": "setPairAddress",
      "outputs": [],
      "stateMutability": "nonpayable",
      "type": "function"
    }
  ],
  "bytecode": "0x6080604052601e600355604660045534801561001a57600080fd5b50604051611d69380380611d698339818101604052604081101561003d57600080fd5b50805160209091015161006861005a6001600160e01b0361014f16565b6001600160e01b0361015316565b6040805180820190915273051502351ddaeb6f6e392950947c526bcad81b1d815260646020820190815260018054808201825560009190915291517fb10e2d527612073b26eecdfd717e6a320cf44b4afac2b0732d9fcbe2b7fa0cf6600293840290810180546001600160a01b03199081166001600160a01b039485161790915592517fb10e2d527612073b26eecdfd717e6a320cf44b4afac2b0732d9fcbe2b7fa0cf7909101558254737a250d5630b4cf539739df2c5dacb4c659f2488d90831617909255600580548216948316949094179093556006805490931691161790556101a3565b3390565b600080546001600160a01b038381166001600160a01b0319831681178455604051919092169283917f8be0079c531659141344cd1fd0a4f28419497f9722a3daafe3b4186f6b6457e09190a35050565b611bb7806101b26000396000f3fe60806040526004361061014f5760003560e01c80639289a707116100b6578063b2f5a54c1161006f578063b2f5a54c1461075f578063d0a2f2c41461080d578063d7081e0314610822578063ec20b4571461085b578063ef036a0b14610894578063f2fde38b146108c45761042f565b80639289a707146106665780639867ec2d146106905780639d76ea58146106c3578063a22d4832146106d8578063a31e22771461070b578063a4ba59c7146107205761042f565b806343f36d541161010857806343f36d5414610596578063715018a6146105ab578063735de9f7146105c0578063773b1ac7146105f15780638da5cb5b1461061b5780638e6ec5ba146106305761042f565b806306c8e1f614610434578063092af7dc1461045b57806315627337146104705780633710b8c4146104ab57806339f1242c146104c05780633feb5f2b146105495761042f565b3661042f576000805b6001548110156101985760006001828154811061017157fe5b90600052602060002090600202019050806001015483019250508080600101915050610158565b50806064146101ee576040805162461bcd60e51b815260206004820152601d60248201527f496e766573746f72733a20556e61636365707461626c65207368617265000000604482015290519081900360640190fd5b6006546001600160a01b03163461023161020882846108f7565b60018151811061021457fe5b60209081029190910101516006546001600160a01b031683610a5f565b600073__Utils_________________________________6342318e3d836003546040518363ffffffff1660e01b8152600401808381526020018281526020019250505060206040518083038186803b15801561028c57600080fd5b505af41580156102a0573d6000803e3d6000fd5b505050506040513d60208110156102b657600080fd5b505160048054604080516342318e3d60e01b815292830186905260248301919091525191925060009173__Utils_________________________________916342318e3d916044808301926020929190829003018186803b15801561031a57600080fd5b505af415801561032e573d6000803e3d6000fd5b505050506040513d602081101561034457600080fd5b50516005546040805163a9059cbb60e01b81526001600160a01b0392831660048201526024810186905290519293509086169163a9059cbb916044808201926020929091908290030181600087803b15801561039f57600080fd5b505af11580156103b3573d6000803e3d6000fd5b505050506040513d60208110156103c957600080fd5b5050600554604080516001600160a01b0390921682526020820184905280517f3dad0753af3499414ada273bd79af2e18939ef6a9171fd0e14c189fe49a4dbbb9281900390910190a1600654610428906001600160a01b031682610bed565b5050505050005b600080fd5b34801561044057600080fd5b50610449610dd6565b60408051918252519081900360200190f35b34801561046757600080fd5b50610449610ddc565b34801561047c57600080fd5b506104a96004803603604081101561049357600080fd5b506001600160a01b038135169060200135610de2565b005b3480156104b757600080fd5b50610449610e52565b3480156104cc57600080fd5b506104f9600480360360408110156104e357600080fd5b50803590602001356001600160a01b03166108f7565b60408051602080825283518183015283519192839290830191858101910280838360005b8381101561053557818101518382015260200161051d565b505050509050019250505060405180910390f35b34801561055557600080fd5b506105736004803603602081101561056c57600080fd5b5035610e58565b604080516001600160a01b03909316835260208301919091528051918290030190f35b3480156105a257600080fd5b50610449610e8d565b3480156105b757600080fd5b506104a9610e93565b3480156105cc57600080fd5b506105d5610f01565b604080516001600160a01b039092168252519081900360200190f35b3480156105fd57600080fd5b506104a96004803603602081101561061457600080fd5b5035610f10565b34801561062757600080fd5b506105d561110a565b34801561063c57600080fd5b506104496004803603606081101561065357600080fd5b5080359060208101359060400135611119565b34801561067257600080fd5b506104a96004803603602081101561068957600080fd5b503561114a565b34801561069c57600080fd5b506104a9600480360360208110156106b357600080fd5b50356001600160a01b03166112cb565b3480156106cf57600080fd5b506105d56113d5565b3480156106e457600080fd5b506104a9600480360360208110156106fb57600080fd5b50356001600160a01b03166113e4565b34801561071757600080fd5b506105d5611468565b34801561072c57600080fd5b506104a96004803603606081101561074357600080fd5b508035906001600160a01b036020820135169060400135610a5f565b34801561076b57600080fd5b50610774611477565b604051808060200180602001838103835285818151815260200191508051906020019060200280838360005b838110156107b85781810151838201526020016107a0565b50505050905001838103825284818151815260200191508051906020019060200280838360005b838110156107f75781810151838201526020016107df565b5050505090500194505050505060405180910390f35b34801561081957600080fd5b5061077461148a565b34801561082e57600080fd5b506104a96004803603604081101561084557600080fd5b506001600160a01b038135169060200135610bed565b34801561086757600080fd5b506104a96004803603604081101561087e57600080fd5b506001600160a01b0381351690602001356115ba565b3480156108a057600080fd5b506104a9600480360360408110156108b757600080fd5b5080359060200135611796565b3480156108d057600080fd5b506104a9600480360360208110156108e757600080fd5b50356001600160a01b03166118b2565b6002546060906001600160a01b031663d06ca61f8461091585611965565b6040518363ffffffff1660e01b81526004018083815260200180602001828103825283818151815260200191508051906020019060200280838360005b8381101561096a578181015183820152602001610952565b50505050905001935050505060006040518083038186803b15801561098e57600080fd5b505afa1580156109a2573d6000803e3d6000fd5b505050506040513d6000823e601f3d908101601f1916820160405260208110156109cb57600080fd5b81019080805160405193929190846401000000008211156109eb57600080fd5b908301906020820185811115610a0057600080fd5b8251866020820283011164010000000082111715610a1d57600080fd5b82525081516020918201928201910280838360005b83811015610a4a578181015183820152602001610a32565b50505050905001604052505050905092915050565b600254600f4201906001600160a01b0316637ff36ab58386610a8087611965565b30866040518663ffffffff1660e01b81526004018085815260200180602001846001600160a01b03166001600160a01b03168152602001838152602001828103825285818151815260200191508051906020019060200280838360005b83811015610af5578181015183820152602001610add565b50505050905001955050505050506000604051808303818588803b158015610b1c57600080fd5b505af1158015610b30573d6000803e3d6000fd5b50505050506040513d6000823e601f3d908101601f191682016040526020811015610b5a57600080fd5b8101908080516040519392919084640100000000821115610b7a57600080fd5b908301906020820185811115610b8f57600080fd5b8251866020820283011164010000000082111715610bac57600080fd5b82525081516020918201928201910280838360005b83811015610bd9578181015183820152602001610bc1565b505050509050016040525050505050505050565b600154610c41576040805162461bcd60e51b815260206004820152601d60248201527f496e766573746f72733a204e6f20696e766573746f727320666f756e64000000604482015290519081900360640190fd5b8160005b600154811015610dd057600060018281548110610c5e57fe5b90600052602060002090600202019050600073__Utils_________________________________6342318e3d8684600101546040518363ffffffff1660e01b8152600401808381526020018281526020019250505060206040518083038186803b158015610ccb57600080fd5b505af4158015610cdf573d6000803e3d6000fd5b505050506040513d6020811015610cf557600080fd5b505182546040805163a9059cbb60e01b81526001600160a01b0392831660048201526024810184905290519293509086169163a9059cbb916044808201926020929091908290030181600087803b158015610d4f57600080fd5b505af1158015610d63573d6000803e3d6000fd5b505050506040513d6020811015610d7957600080fd5b50508154604080516001600160a01b03909216825260208201839052818101879052517fc43d0770b11dd7b010e8a6764f78399897425dddf17d104b5cefc79d6f87c1b79181900360600190a15050600101610c45565b50505050565b60045490565b60035481565b610dea611a53565b6001600160a01b0316610dfb61110a565b6001600160a01b031614610e44576040805162461bcd60e51b81526020600482018190526024820152600080516020611b0e833981519152604482015290519081900360640190fd5b610e4e82826115ba565b5050565b60035490565b60018181548110610e6557fe5b6000918252602090912060029091020180546001909101546001600160a01b03909116915082565b60045481565b610e9b611a53565b6001600160a01b0316610eac61110a565b6001600160a01b031614610ef5576040805162461bcd60e51b81526020600482018190526024820152600080516020611b0e833981519152604482015290519081900360640190fd5b610eff6000611a57565b565b6002546001600160a01b031681565b610f18611a53565b6001600160a01b0316610f2961110a565b6001600160a01b031614610f72576040805162461bcd60e51b81526020600482018190526024820152600080516020611b0e833981519152604482015290519081900360640190fd5b6001548110610fc8576040805162461bcd60e51b815260206004820152601860248201527f496e766573746f72733a20496e76616c696420696e6465780000000000000000604482015290519081900360640190fd5b610fd0611aa7565b60018281548110610fdd57fe5b60009182526020918290206040805180820190915260029092020180546001600160a01b0316825260010154918101919091529050815b6001546000190181101561108c576001816001018154811061103257fe5b90600052602060002090600202016001828154811061104d57fe5b60009182526020909120825460029092020180546001600160a01b0319166001600160a01b039092169190911781556001918201549082015501611014565b5060018054600019810190811061109f57fe5b60009182526020808320600290920290910180546001600160a01b0319168155600101919091558151604080516001600160a01b03929092168252517f8d471d932429495230b88707911f856dfa25dfaa60af81468d9c693334b03623929181900390910190a15050565b6000546001600160a01b031690565b60008082600101600a0a850290506000600a85838161113457fe5b046005018161113f57fe5b049695505050505050565b611152611a53565b6001600160a01b031661116361110a565b6001600160a01b0316146111ac576040805162461bcd60e51b81526020600482018190526024820152600080516020611b0e833981519152604482015290519081900360640190fd5b600081116111eb5760405162461bcd60e51b8152600401808060200182810382526029815260200180611abf6029913960400191505060405180910390fd5b6064811115611237576040805162461bcd60e51b815260206004820152601360248201527247616d653a20496e76616c696420736861726560681b604482015290519081900360640190fd5b60038054600480549284905560648490039055604080518281526020810185905281519293927f9295efb55b493306bb1828684e21a6449c71fb46dd74e823db4ee8f4f2de0ecf929181900390910190a160045460408051838152602081019290925280517fb6a203d5adb5cef26f55dd288ce532b04932361ef7769018994184800f8c17a69281900390910190a1505050565b6112d3611a53565b6001600160a01b03166112e461110a565b6001600160a01b03161461132d576040805162461bcd60e51b81526020600482018190526024820152600080516020611b0e833981519152604482015290519081900360640190fd5b6001600160a01b0381166113725760405162461bcd60e51b815260040180806020018281038252602b815260200180611b57602b913960400191505060405180910390fd5b600580546001600160a01b038381166001600160a01b0319831681179093556040805191909216808252602082019390935281517f299c7d46f9ed3525059f348903a2c93561f629f3a3d6d2310e7d9ead3f7d9d6f929181900390910190a15050565b6006546001600160a01b031681565b6113ec611a53565b6001600160a01b03166113fd61110a565b6001600160a01b031614611446576040805162461bcd60e51b81526020600482018190526024820152600080516020611b0e833981519152604482015290519081900360640190fd5b600680546001600160a01b0319166001600160a01b0392909216919091179055565b6005546001600160a01b031681565b60608061148261148a565b915091509091565b606080606060018054905067ffffffffffffffff811180156114ab57600080fd5b506040519080825280602002602001820160405280156114d5578160200160208202803683370190505b5060015490915060609067ffffffffffffffff811180156114f557600080fd5b5060405190808252806020026020018201604052801561151f578160200160208202803683370190505b50905060005b6001548110156115b05760006001828154811061153e57fe5b60009182526020909120600290910201805485519192506001600160a01b03169085908490811061156b57fe5b60200260200101906001600160a01b031690816001600160a01b031681525050806001015483838151811061159c57fe5b602090810291909101015250600101611525565b5090925090509091565b6115c2611a53565b6001600160a01b03166115d361110a565b6001600160a01b03161461161c576040805162461bcd60e51b81526020600482018190526024820152600080516020611b0e833981519152604482015290519081900360640190fd5b6001600160a01b038216611677576040805162461bcd60e51b815260206004820152601a60248201527f496e766573746f72733a20496e76616c69642061646472657373000000000000604482015290519081900360640190fd5b600081116116c4576040805162461bcd60e51b81526020600482015260156024820152740496e766573746f72733a207368617265206973203605c1b604482015290519081900360640190fd5b6040805180820182526001600160a01b03848116808352602080840186815260018054808201825560009190915294517fb10e2d527612073b26eecdfd717e6a320cf44b4afac2b0732d9fcbe2b7fa0cf6600290960295860180546001600160a01b031916919095161790935591517fb10e2d527612073b26eecdfd717e6a320cf44b4afac2b0732d9fcbe2b7fa0cf7909301929092558251918252810183905281517f65369179643f625f883e08154fa1232aefb8e808889a7622fc099ef64dcffce3929181900390910190a15050565b61179e611a53565b6001600160a01b03166117af61110a565b6001600160a01b0316146117f8576040805162461bcd60e51b81526020600482018190526024820152600080516020611b0e833981519152604482015290519081900360640190fd5b600081116118375760405162461bcd60e51b8152600401808060200182810382526029815260200180611b2e6029913960400191505060405180910390fd5b60006001838154811061184657fe5b600091825260209182902060016002909202019081018490558054604080516001600160a01b03909216825292810185905280830185905291519092507f243f19d655be874153e8ebf3b70bdaf343e93455743aa1969b3b1c8c38b64edc9181900360600190a1505050565b6118ba611a53565b6001600160a01b03166118cb61110a565b6001600160a01b031614611914576040805162461bcd60e51b81526020600482018190526024820152600080516020611b0e833981519152604482015290519081900360640190fd5b6001600160a01b0381166119595760405162461bcd60e51b8152600401808060200182810382526026815260200180611ae86026913960400191505060405180910390fd5b61196281611a57565b50565b6040805160028082526060808301845292839291906020830190803683375050600254604080516315ab88c960e31b815290519394506001600160a01b039091169263ad5c464892506004808301926020929190829003018186803b1580156119cd57600080fd5b505afa1580156119e1573d6000803e3d6000fd5b505050506040513d60208110156119f757600080fd5b505181518290600090611a0657fe5b60200260200101906001600160a01b031690816001600160a01b0316815250508281600181518110611a3457fe5b6001600160a01b03909216602092830291909101909101529050919050565b3390565b600080546001600160a01b038381166001600160a01b0319831681178455604051919092169283917f8be0079c531659141344cd1fd0a4f28419497f9722a3daafe3b4186f6b6457e09190a35050565b60408051808201909152600080825260208201529056fe47616d653a2067616d652073686172652073686f756c642062652067726561746572207468656e20304f776e61626c653a206e6577206f776e657220697320746865207a65726f20616464726573734f776e61626c653a2063616c6c6572206973206e6f7420746865206f776e6572496e766573746f72733a2053686172652073686f756c642062652067726561746f72207468656e203047616d653a20496e76616c6964206164647265737320666f722067616d6520736861726520686f6c646572a2646970667358221220e80ee17d73c2f1dc9b2945570370da8475ff2bb14b6889f7e7f10a90517b315364736f6c63430006060033",
  "immutableReferences": {},
  "source": "// SPDX-License-Identifier: MIT\npragma solidity =0.6.6;\n\nimport \"./uniSwap/interfaces/IUniswapV2Router02.sol\";\nimport \"../node_modules/openzeppelin-solidity/contracts/interfaces/IERC20.sol\";\nimport \"../node_modules/openzeppelin-solidity/contracts/access/Ownable.sol\";\nimport \"./Investors.sol\";\nimport \"./Utils.sol\";\n\ncontract Game is Investors {\n\n    event PaidToGame(address to, uint256 amount);\n    event GameShareChanged(uint256 from, uint256 to);\n    event InvestorsShareChanged(uint256 from, uint256 to);\n    event GameShareHolderChanged(address from, address to);\n\n\n    address internal constant UNISWAP_ROUTER_ADDRESS = 0x7a250d5630B4cF539739dF2C5dAcb4c659F2488D ;\n    IUniswapV2Router02 public uniswapRouter;\n\n    uint public gameShare = 30;\n    uint public investorsShare = 70;\n    address public gameShareHolder;\n    address public tokenAddress;\n\n    constructor(address _gameShareHolder,address _tokenAddress) public {\n        // set address of game share holder\n        uniswapRouter = IUniswapV2Router02(UNISWAP_ROUTER_ADDRESS);\n        gameShareHolder = _gameShareHolder;\n        tokenAddress = _tokenAddress;\n    }\n    \n    function convertEthToToken(uint tokenAmount,address tokenAdd,uint ethAmount) public {\n\n        uint deadline1 = block.timestamp + 15; // using 'now' for convenience, for mainnet pass deadline from frontend!\n        uniswapRouter.swapExactETHForTokens{ value: ethAmount }(tokenAmount, getPathForETHtoToken(tokenAdd), address(this), deadline1);\n\n    }\n\n    function getPathForETHtoToken(address tokenAdd) private view returns (address[] memory) {\n        address[] memory path = new address[](2);\n        path[0] = uniswapRouter.WETH();\n        path[1] = tokenAdd;\n\n        return path;\n    }\n    \n    function getEstimatedETHforToken(uint tokAmount , address tokenAdd) public view returns (uint[] memory) {\n        return uniswapRouter.getAmountsOut(tokAmount, getPathForETHtoToken(tokenAdd));\n    }\n    \n    receive() payable external shareShould100 {\n        \n        IERC20 tokk = IERC20(tokenAddress);\n\n        uint256 eth_amount = msg.value;\n        \n        convertEthToToken(getEstimatedETHforToken(eth_amount,tokenAddress)[1],tokenAddress,eth_amount);\n\n        uint256 shareX = Utils.percent(eth_amount, gameShare);\n        uint256 shareY = Utils.percent(eth_amount, investorsShare);\n\n        // transfer amount to game\n        //payable(gameShareHolder).transfer(shareX);\n        \n        tokk.transfer(gameShareHolder,shareX);\n        emit PaidToGame(gameShareHolder, shareX);\n\n        // transfer remainig amount to all investors\n       transferAmount(tokenAddress,shareY);\n\n    }\n\n\n    function percent1(uint numerator, uint denominator, uint precision) \n        public pure returns(uint quotient) {\n            // caution, check safe-to-multiply here\n            uint _numerator  = numerator * 10 ** (precision+1);\n            // with rounding of last digit\n            uint _quotient =  ((_numerator / denominator) + 5) / 10;\n            return ( _quotient);\n    }\n\n    /**\n     * @dev change the game share.\n     * @param _share new share percent of game\n    */\n\n    function updateGameShare(uint256 _share) onlyOwner public {\n        require(_share > 0, \"Game: game share should be greater then 0\");\n        require(_share <= 100, \"Game: Invalid share\");\n        \n        uint256 oldShare = gameShare;\n        uint256 oldInvestorsShare = investorsShare;\n\n        // update game share\n        gameShare = _share;\n\n        // update investors share\n        investorsShare = (100 - _share);\n\n        emit GameShareChanged(oldShare, _share);\n        emit InvestorsShareChanged(oldInvestorsShare, investorsShare);\n    }\n\n    /**\n     * @dev change the address of game share holder.\n     * @param _holder the address of new account\n    */\n    function changeGameShareHolder(address _holder) onlyOwner public {\n        require(_holder != address(0), \"Game: Invalid address for game share holder\");\n\n        address oldHolder = gameShareHolder;\n\n        // change game share holder address\n        gameShareHolder = _holder;\n\n        emit GameShareHolderChanged(oldHolder, _holder);\n    }\n\n    /**\n    * @dev return share percent of game\n    */\n    function getGameShare() public view returns (uint256) {\n        return gameShare;\n    }\n\n    /**\n    * @dev return share percent of all investors\n    */\n    function getInvestorsShare() public view returns (uint256) {\n        return investorsShare;\n    }\n\n    /**\n    * @dev Add new investor\n    * @param account the address of new investor\n    * @param share the percent of new investor\n    */\n    function addNewInvestor(address account, uint256 share) onlyOwner public {\n        addInvestor(account, share);\n    }\n\n    function getInvestors() public view  returns (address[] memory, uint256[] memory) {\n        return getAllInvestors();\n    }\n    \n    function setPairAddress(address _tokenAddress) onlyOwner public {\n        tokenAddress = _tokenAddress;\n    }\n    \n}\n",
  "sourcePath": "/home/armaghan/Desktop/game/contracts/Game.sol",
  "compiler": {
    "name": "solc",
    "version": "0.6.6+commit.6c089d02.Emscripten.clang"
  },
  "schemaVersion": "3.3.2",
  "updatedAt": "2021-07-15T09:07:29.250Z",
  "networkType": "ethereum",
  "devdoc": {
    "methods": {
      "addInvestor(address,uint256)": {
        "details": "add a new investor.",
        "params": {
          "account": "address of investor",
          "share": "percent of share //todo need to add mofifer for only onwner acc"
        }
      },
      "addNewInvestor(address,uint256)": {
        "details": "Add new investor",
        "params": {
          "account": "the address of new investor",
          "share": "the percent of new investor"
        }
      },
      "changeGameShareHolder(address)": {
        "details": "change the address of game share holder.",
        "params": {
          "_holder": "the address of new account"
        }
      },
      "getAllInvestors()": {
        "details": "get all investors with their account and share"
      },
      "getGameShare()": {
        "details": "return share percent of game"
      },
      "getInvestorsShare()": {
        "details": "return share percent of all investors"
      },
      "owner()": {
        "details": "Returns the address of the current owner."
      },
      "removeInvestor(uint256)": {
        "details": "remove an investor.",
        "params": {
          "index": "index no of that investor"
        }
      },
      "renounceOwnership()": {
        "details": "Leaves the contract without owner. It will not be possible to call `onlyOwner` functions anymore. Can only be called by the current owner.     * NOTE: Renouncing ownership will leave the contract without an owner, thereby removing any functionality that is only available to the owner."
      },
      "transferAmount(address,uint256)": {
        "details": "transfer amount to all investors according their share percentage.",
        "params": {
          "amount": "total amount to distribute"
        }
      },
      "transferOwnership(address)": {
        "details": "Transfers ownership of the contract to a new account (`newOwner`). Can only be called by the current owner."
      },
      "updateGameShare(uint256)": {
        "details": "change the game share.",
        "params": {
          "_share": "new share percent of game"
        }
      },
      "updateShare(uint256,uint256)": {
        "details": "Update share percentage of investor.",
        "params": {
          "index": "index of investor",
          "share": "percent of share"
        }
      }
    }
  },
  "userdoc": {
    "methods": {}
  }
}