{
  "contractName": "Investors",
  "abi": [
    {
      "inputs": [],
      "stateMutability": "nonpayable",
      "type": "constructor"
    },
    {
      "anonymous": false,
      "inputs": [
        {
          "indexed": false,
          "internalType": "address",
          "name": "to",
          "type": "address"
        },
        {
          "indexed": false,
          "internalType": "uint256",
          "name": "share",
          "type": "uint256"
        }
      ],
      "name": "InvestorAdded",
      "type": "event"
    },
    {
      "anonymous": false,
      "inputs": [
        {
          "indexed": false,
          "internalType": "address",
          "name": "investor",
          "type": "address"
        }
      ],
      "name": "InvestorRemove",
      "type": "event"
    },
    {
      "anonymous": false,
      "inputs": [
        {
          "indexed": false,
          "internalType": "address",
          "name": "investor",
          "type": "address"
        },
        {
          "indexed": false,
          "internalType": "uint256",
          "name": "from",
          "type": "uint256"
        },
        {
          "indexed": false,
          "internalType": "uint256",
          "name": "to",
          "type": "uint256"
        }
      ],
      "name": "InvestorShareChange",
      "type": "event"
    },
    {
      "anonymous": false,
      "inputs": [
        {
          "indexed": true,
          "internalType": "address",
          "name": "previousOwner",
          "type": "address"
        },
        {
          "indexed": true,
          "internalType": "address",
          "name": "newOwner",
          "type": "address"
        }
      ],
      "name": "OwnershipTransferred",
      "type": "event"
    },
    {
      "anonymous": false,
      "inputs": [
        {
          "indexed": false,
          "internalType": "address",
          "name": "to",
          "type": "address"
        },
        {
          "indexed": false,
          "internalType": "uint256",
          "name": "share",
          "type": "uint256"
        },
        {
          "indexed": false,
          "internalType": "uint256",
          "name": "amount",
          "type": "uint256"
        }
      ],
      "name": "PaidToInvestor",
      "type": "event"
    },
    {
      "inputs": [
        {
          "internalType": "uint256",
          "name": "",
          "type": "uint256"
        }
      ],
      "name": "investors",
      "outputs": [
        {
          "internalType": "address",
          "name": "account",
          "type": "address"
        },
        {
          "internalType": "uint256",
          "name": "percent",
          "type": "uint256"
        }
      ],
      "stateMutability": "view",
      "type": "function"
    },
    {
      "inputs": [],
      "name": "owner",
      "outputs": [
        {
          "internalType": "address",
          "name": "",
          "type": "address"
        }
      ],
      "stateMutability": "view",
      "type": "function"
    },
    {
      "inputs": [],
      "name": "renounceOwnership",
      "outputs": [],
      "stateMutability": "nonpayable",
      "type": "function"
    },
    {
      "inputs": [
        {
          "internalType": "address",
          "name": "newOwner",
          "type": "address"
        }
      ],
      "name": "transferOwnership",
      "outputs": [],
      "stateMutability": "nonpayable",
      "type": "function"
    },
    {
      "inputs": [],
      "name": "getAllInvestors",
      "outputs": [
        {
          "internalType": "address[]",
          "name": "",
          "type": "address[]"
        },
        {
          "internalType": "uint256[]",
          "name": "",
          "type": "uint256[]"
        }
      ],
      "stateMutability": "view",
      "type": "function"
    },
    {
      "inputs": [
        {
          "internalType": "address",
          "name": "tokenAddress",
          "type": "address"
        },
        {
          "internalType": "uint256",
          "name": "amount",
          "type": "uint256"
        }
      ],
      "name": "transferAmount",
      "outputs": [],
      "stateMutability": "nonpayable",
      "type": "function"
    },
    {
      "inputs": [
        {
          "internalType": "uint256",
          "name": "index",
          "type": "uint256"
        }
      ],
      "name": "removeInvestor",
      "outputs": [],
      "stateMutability": "nonpayable",
      "type": "function"
    },
    {
      "inputs": [
        {
          "internalType": "address",
          "name": "account",
          "type": "address"
        },
        {
          "internalType": "uint256",
          "name": "share",
          "type": "uint256"
        }
      ],
      "name": "addInvestor",
      "outputs": [],
      "stateMutability": "nonpayable",
      "type": "function"
    },
    {
      "inputs": [
        {
          "internalType": "uint256",
          "name": "index",
          "type": "uint256"
        },
        {
          "internalType": "uint256",
          "name": "share",
          "type": "uint256"
        }
      ],
      "name": "updateShare",
      "outputs": [],
      "stateMutability": "nonpayable",
      "type": "function"
    }
  ],
  "bytecode": "0x608060405234801561001057600080fd5b506100336100256001600160e01b036100df16565b6001600160e01b036100e316565b6040805180820190915273051502351ddaeb6f6e392950947c526bcad81b1d815260646020820190815260018054808201825560009190915291517fb10e2d527612073b26eecdfd717e6a320cf44b4afac2b0732d9fcbe2b7fa0cf6600290930292830180546001600160a01b0319166001600160a01b03909216919091179055517fb10e2d527612073b26eecdfd717e6a320cf44b4afac2b0732d9fcbe2b7fa0cf790910155610133565b3390565b600080546001600160a01b038381166001600160a01b0319831681178455604051919092169283917f8be0079c531659141344cd1fd0a4f28419497f9722a3daafe3b4186f6b6457e09190a35050565b610ce5806101426000396000f3fe608060405234801561001057600080fd5b50600436106100935760003560e01c8063d0a2f2c411610066578063d0a2f2c414610123578063d7081e03146101c4578063ec20b457146101f0578063ef036a0b1461021c578063f2fde38b1461023f57610093565b80633feb5f2b14610098578063715018a6146100d8578063773b1ac7146100e25780638da5cb5b146100ff575b600080fd5b6100b5600480360360208110156100ae57600080fd5b5035610265565b604080516001600160a01b03909316835260208301919091528051918290030190f35b6100e061029a565b005b6100e0600480360360208110156100f857600080fd5b5035610308565b610107610502565b604080516001600160a01b039092168252519081900360200190f35b61012b610511565b604051808060200180602001838103835285818151815260200191508051906020019060200280838360005b8381101561016f578181015183820152602001610157565b50505050905001838103825284818151815260200191508051906020019060200280838360005b838110156101ae578181015183820152602001610196565b5050505090500194505050505060405180910390f35b6100e0600480360360408110156101da57600080fd5b506001600160a01b038135169060200135610641565b6100e06004803603604081101561020657600080fd5b506001600160a01b03813516906020013561082a565b6100e06004803603604081101561023257600080fd5b5080359060200135610a06565b6100e06004803603602081101561025557600080fd5b50356001600160a01b0316610b22565b6001818154811061027257fe5b6000918252602090912060029091020180546001909101546001600160a01b03909116915082565b6102a2610bd5565b6001600160a01b03166102b3610502565b6001600160a01b0316146102fc576040805162461bcd60e51b81526020600482018190526024820152600080516020610c67833981519152604482015290519081900360640190fd5b6103066000610bd9565b565b610310610bd5565b6001600160a01b0316610321610502565b6001600160a01b03161461036a576040805162461bcd60e51b81526020600482018190526024820152600080516020610c67833981519152604482015290519081900360640190fd5b60015481106103c0576040805162461bcd60e51b815260206004820152601860248201527f496e766573746f72733a20496e76616c696420696e6465780000000000000000604482015290519081900360640190fd5b6103c8610c29565b600182815481106103d557fe5b60009182526020918290206040805180820190915260029092020180546001600160a01b0316825260010154918101919091529050815b60015460001901811015610484576001816001018154811061042a57fe5b90600052602060002090600202016001828154811061044557fe5b60009182526020909120825460029092020180546001600160a01b0319166001600160a01b03909216919091178155600191820154908201550161040c565b5060018054600019810190811061049757fe5b60009182526020808320600290920290910180546001600160a01b0319168155600101919091558151604080516001600160a01b03929092168252517f8d471d932429495230b88707911f856dfa25dfaa60af81468d9c693334b03623929181900390910190a15050565b6000546001600160a01b031690565b606080606060018054905067ffffffffffffffff8111801561053257600080fd5b5060405190808252806020026020018201604052801561055c578160200160208202803683370190505b5060015490915060609067ffffffffffffffff8111801561057c57600080fd5b506040519080825280602002602001820160405280156105a6578160200160208202803683370190505b50905060005b600154811015610637576000600182815481106105c557fe5b60009182526020909120600290910201805485519192506001600160a01b0316908590849081106105f257fe5b60200260200101906001600160a01b031690816001600160a01b031681525050806001015483838151811061062357fe5b6020908102919091010152506001016105ac565b5090925090509091565b600154610695576040805162461bcd60e51b815260206004820152601d60248201527f496e766573746f72733a204e6f20696e766573746f727320666f756e64000000604482015290519081900360640190fd5b8160005b600154811015610824576000600182815481106106b257fe5b90600052602060002090600202019050600073__Utils_________________________________6342318e3d8684600101546040518363ffffffff1660e01b8152600401808381526020018281526020019250505060206040518083038186803b15801561071f57600080fd5b505af4158015610733573d6000803e3d6000fd5b505050506040513d602081101561074957600080fd5b505182546040805163a9059cbb60e01b81526001600160a01b0392831660048201526024810184905290519293509086169163a9059cbb916044808201926020929091908290030181600087803b1580156107a357600080fd5b505af11580156107b7573d6000803e3d6000fd5b505050506040513d60208110156107cd57600080fd5b50508154604080516001600160a01b03909216825260208201839052818101879052517fc43d0770b11dd7b010e8a6764f78399897425dddf17d104b5cefc79d6f87c1b79181900360600190a15050600101610699565b50505050565b610832610bd5565b6001600160a01b0316610843610502565b6001600160a01b03161461088c576040805162461bcd60e51b81526020600482018190526024820152600080516020610c67833981519152604482015290519081900360640190fd5b6001600160a01b0382166108e7576040805162461bcd60e51b815260206004820152601a60248201527f496e766573746f72733a20496e76616c69642061646472657373000000000000604482015290519081900360640190fd5b60008111610934576040805162461bcd60e51b81526020600482015260156024820152740496e766573746f72733a207368617265206973203605c1b604482015290519081900360640190fd5b6040805180820182526001600160a01b03848116808352602080840186815260018054808201825560009190915294517fb10e2d527612073b26eecdfd717e6a320cf44b4afac2b0732d9fcbe2b7fa0cf6600290960295860180546001600160a01b031916919095161790935591517fb10e2d527612073b26eecdfd717e6a320cf44b4afac2b0732d9fcbe2b7fa0cf7909301929092558251918252810183905281517f65369179643f625f883e08154fa1232aefb8e808889a7622fc099ef64dcffce3929181900390910190a15050565b610a0e610bd5565b6001600160a01b0316610a1f610502565b6001600160a01b031614610a68576040805162461bcd60e51b81526020600482018190526024820152600080516020610c67833981519152604482015290519081900360640190fd5b60008111610aa75760405162461bcd60e51b8152600401808060200182810382526029815260200180610c876029913960400191505060405180910390fd5b600060018381548110610ab657fe5b600091825260209182902060016002909202019081018490558054604080516001600160a01b03909216825292810185905280830185905291519092507f243f19d655be874153e8ebf3b70bdaf343e93455743aa1969b3b1c8c38b64edc9181900360600190a1505050565b610b2a610bd5565b6001600160a01b0316610b3b610502565b6001600160a01b031614610b84576040805162461bcd60e51b81526020600482018190526024820152600080516020610c67833981519152604482015290519081900360640190fd5b6001600160a01b038116610bc95760405162461bcd60e51b8152600401808060200182810382526026815260200180610c416026913960400191505060405180910390fd5b610bd281610bd9565b50565b3390565b600080546001600160a01b038381166001600160a01b0319831681178455604051919092169283917f8be0079c531659141344cd1fd0a4f28419497f9722a3daafe3b4186f6b6457e09190a35050565b60408051808201909152600080825260208201529056fe4f776e61626c653a206e6577206f776e657220697320746865207a65726f20616464726573734f776e61626c653a2063616c6c6572206973206e6f7420746865206f776e6572496e766573746f72733a2053686172652073686f756c642062652067726561746f72207468656e2030a2646970667358221220bf4d034e750c6d3f6b02a3f37d27d70c82985a3efb80e3b6243544ac1e1a391b64736f6c63430006060033",
  "immutableReferences": {},
  "source": "// SPDX-License-Identifier: MIT\n\npragma solidity =0.6.6;\n\nimport \"../node_modules/openzeppelin-solidity/contracts/interfaces/IERC20.sol\";\nimport \"../node_modules/openzeppelin-solidity/contracts/access/Ownable.sol\";\nimport \"./Utils.sol\";\ncontract Investors is Ownable {\n    event PaidToInvestor(address to, uint256 share, uint256 amount);\n    event InvestorAdded(address to, uint256 share);\n    event InvestorRemove(address investor);\n    event InvestorShareChange(address investor, uint256 from, uint256 to);\n\n    struct Investor {\n        address account;\n        uint256 percent;\n    }\n\n    Investor[] public investors;\n\n    constructor() public {\n        investors.push(Investor(0x051502351ddaeb6f6e392950947C526BCAd81B1D, 100));\n    }\n\n    /**\n    * @dev get all investors with their account and share\n    */\n    function getAllInvestors() public view returns (address[] memory, uint256[] memory) {\n        address[] memory addrs = new address[](investors.length);\n        uint256[] memory share = new uint[](investors.length);\n\n        for (uint i = 0; i < investors.length; i++) {\n            Investor storage person = investors[i];\n            addrs[i] = person.account;\n            share[i] = person.percent;\n        }\n        \n        return (addrs, share);\n    }\n\n    /**\n    * @dev transfer amount to all investors according their share percentage.\n    * @param amount total amount to distribute\n    */\n\n    function transferAmount(address tokenAddress,uint256 amount) public {\n        require(investors.length > 0, \"Investors: No investors found\");\n        IERC20 tokk = IERC20(tokenAddress);\n\n        \n        for (uint i= 0; i < investors.length; i++) {\n            Investor storage person = investors[i];\n            uint256 shareY = Utils.percent(amount, person.percent);\n            //payable(person.account).transfer(shareY);\n            tokk.transfer(person.account,shareY);\n            emit PaidToInvestor(person.account, shareY, amount);\n        }\n    }\n\n    /**\n    * @dev remove an investor.\n    * @param index index no of that investor\n    */\n\n    function removeInvestor(uint index) onlyOwner public {\n        require(index < investors.length, \"Investors: Invalid index\");\n\n        Investor memory removedInvestor = investors[index];\n        for (uint i = index; i < investors.length-1; i++){\n            investors[i] = investors[i+1];\n        }\n        delete investors[investors.length-1];\n\n        emit InvestorRemove(removedInvestor.account);\n    }\n\n    /**\n    * @dev add a new investor.\n    * @param account address of investor\n    * @param share percent of share\n    //todo need to add mofifer for only onwner acc\n    */\n\n    function addInvestor(address account, uint256 share) onlyOwner public {\n        require(account != address(0), \"Investors: Invalid address\");\n        require(share > 0, \"Investors: share is 0\");\n\n        investors.push(Investor(account, share));\n\n        emit InvestorAdded(account, share);\n    }\n\n    /**\n    * @dev Update share percentage of investor.\n    * @param index index of investor\n    * @param share percent of share\n    */\n    function updateShare(uint index, uint256 share) onlyOwner public {\n        require(share > 0, \"Investors: Share should be greator then 0\");\n\n        Investor storage investor = investors[index];\n        investor.percent = share;\n\n        emit InvestorShareChange(investor.account, investor.percent, share);\n\n    } \n\n\n    modifier shareShould100() {\n         uint256 investorsShare;\n        for (uint i = 0; i < investors.length; i++) {\n            Investor storage person = investors[i];\n            investorsShare = investorsShare + person.percent;\n        }\n        require(investorsShare == 100, \"Investors: Unacceptable share\");\n        _;\n    }\n    \n}\n",
  "sourcePath": "/home/armaghan/Desktop/game/contracts/Investors.sol",
  "compiler": {
    "name": "solc",
    "version": "0.6.6+commit.6c089d02.Emscripten.clang"
  },
  "schemaVersion": "3.3.2",
  "updatedAt": "2021-07-15T08:25:59.097Z",
  "devdoc": {
    "methods": {
      "addInvestor(address,uint256)": {
        "details": "add a new investor.",
        "params": {
          "account": "address of investor",
          "share": "percent of share //todo need to add mofifer for only onwner acc"
        }
      },
      "getAllInvestors()": {
        "details": "get all investors with their account and share"
      },
      "owner()": {
        "details": "Returns the address of the current owner."
      },
      "removeInvestor(uint256)": {
        "details": "remove an investor.",
        "params": {
          "index": "index no of that investor"
        }
      },
      "renounceOwnership()": {
        "details": "Leaves the contract without owner. It will not be possible to call `onlyOwner` functions anymore. Can only be called by the current owner.     * NOTE: Renouncing ownership will leave the contract without an owner, thereby removing any functionality that is only available to the owner."
      },
      "transferAmount(address,uint256)": {
        "details": "transfer amount to all investors according their share percentage.",
        "params": {
          "amount": "total amount to distribute"
        }
      },
      "transferOwnership(address)": {
        "details": "Transfers ownership of the contract to a new account (`newOwner`). Can only be called by the current owner."
      },
      "updateShare(uint256,uint256)": {
        "details": "Update share percentage of investor.",
        "params": {
          "index": "index of investor",
          "share": "percent of share"
        }
      }
    }
  },
  "userdoc": {
    "methods": {}
  }
}