{
  "contractName": "Utils",
  "abi": [
    {
      "inputs": [
        {
          "internalType": "uint256",
          "name": "eth_amount",
          "type": "uint256"
        },
        {
          "internalType": "uint256",
          "name": "percent_amount",
          "type": "uint256"
        }
      ],
      "name": "percent",
      "outputs": [
        {
          "internalType": "uint256",
          "name": "amount",
          "type": "uint256"
        }
      ],
      "stateMutability": "pure",
      "type": "function",
      "constant": true
    }
  ],
  "bytecode": "0x60a8610024600b82828239805160001a607314601757fe5b30600052607381538281f3fe730000000000000000000000000000000000000000301460806040526004361060335760003560e01c806342318e3d146038575b600080fd5b605860048036036040811015604c57600080fd5b5080359060200135606a565b60408051918252519081900360200190f35b60649102049056fea2646970667358221220c7f9d6ae485367208cf1601db70de50bc30bf5dc5096f2e56447497ad5dc67cf64736f6c63430006060033",
  "immutableReferences": {},
  "source": "pragma solidity =0.6.6;\n\nimport \"../node_modules/openzeppelin-solidity/contracts/utils/math/SafeMath.sol\";\n\nlibrary Utils {\n    function percent(uint256 eth_amount, uint256 percent_amount) public pure returns(uint256 amount) {\n        amount = (eth_amount * percent_amount) / 100;\n        return (amount);\n    }\n}\n",
  "sourcePath": "/home/armaghan/Desktop/game/contracts/Utils.sol",
  "compiler": {
    "name": "solc",
    "version": "0.6.6+commit.6c089d02.Emscripten.clang"
  },
  "schemaVersion": "3.3.2",
  "updatedAt": "2021-07-15T09:07:29.240Z",
  "networkType": "ethereum",
  "devdoc": {
    "methods": {}
  },
  "userdoc": {
    "methods": {}
  }
}